:020000040800F2
:10000000000001205D0E0008C50D0008CD0D0008A0
:10001000D50D0008DD0D0008E50D0008000000000A
:10002000000000000000000000000000ED0D0008CE
:10003000FB0D000800000000090E0008170E000864
:10004000AD0E0008AD0E0008AD0E0008AD0E0008A4
:10005000AD0E0008AD0E0008AD0E0008AD0E000894
:10006000AD0E0008AD0E0008AD0E0008250E00080C
:10007000AD0E0008AD0E0008AD0E0008AD0E000874
:10008000AD0E0008AD0E0008AD0E00080000000027
:10009000000000000000000000000000AD0E00089D
:1000A000AD0E0008AD0E0008AD0E0008AD0E000844
:1000B000AD0E0008AD0E0008AD0E0008AD0E000834
:1000C000AD0E0008AD0E0008AD0E0008AD0E000824
:1000D000AD0E0008AD0E0008AD0E000800000000D7
:1000E000AD0E0008AD0E0008AD0E000800000000C7
:1000F000000000000000000000000000AD0E00083D
:1001000000000000AD0E0008AD0E0008AD0E0008A6
:1001100000000000000000000000000000000000DF
:10012000AD0E0008AD0E0008AD0E0008AD0E0008C3
:10013000AD0E0008000000000000000000000000FC
:10014000000000000000000000000000AD0E0008EC
:10015000AD0E0008AD0E0008AD0E0008AD0E000893
:10016000AD0E0008AD0E0008000000000000000009
:10017000000000000000000000000000000000007F
:1001800000000000AD0E00080000000000000000AC
:04019000AD0E0008A8
:1001940010B5054C237833B9044B13B10448AFF3BD
:1001A40000800123237010BD0C000020000000001B
:1001B400D43F000808B5034B1BB103490348AFF310
:1001C400008008BD0000000010000020D43F00089B
:1001D40053B94AB9002908BF00281CBF4FF0FF31AA
:1001E4004FF0FF3000F06AB9ADF1080C6DE904CEB0
:1001F40000F006F8DDF804E0DDE9022304B07047FE
:100204002DE9F047089D0C46002B4ED194468C45B1
:100214008646B2FA82F262D94AB1C2F12003914011
:1002240020FA03F30CFA02FC194300FA02FE4FEA27
:100234001C471FFA8CF6B1FBF7F44FEA1E4307FB89
:10024400141143EA014304FB06F199420AD91CEB59
:10025400030304F1FF3080F01281994240F20F81D0
:10026400023C6344591A1FFA8EF3B1FBF7F007FB03
:10027400101143EA014300FB06F69E420AD91CEB27
:10028400030300F1FF3180F0FC809E4240F2F980CC
:10029400634402389B1B40EA044000211DB1D34053
:1002A4000022C5E90032BDE8F0878B4205D90DB1C3
:1002B400C5E9000100210846F5E7B3FA83F10029F6
:1002C40046D1A34202D39042C0F0F080861A64EB78
:1002D40003030120002DE6D0C5E90063E3E7002A0B
:1002E40040F09080A1EB0C044FEA1C481FFA8CF7F5
:1002F4000121B4FBF8F64FEA1E4308FB164443EA17
:10030400044307FB06F0984208D91CEB030306F1EB
:10031400FF3402D2984200F2CD8026461C1A1FFAFE
:100324008EF3B4FBF8F008FB104443EA044300FBEB
:1003340007F79F4208D91CEB030300F1FF3402D2F4
:100344009F4200F2B0802046DB1B40EA0640A5E74E
:10035400C1F120068B4022FA06F71F4320FA06FC5F
:1003640004FA01F343EA0C03F44000FA01F8380CF0
:100374004FEA1349B4FBF0FE1FFA87FC00FB1E444E
:1003840049EA04440EFB0CF9A14502FA01F20AD928
:100394003C190EF1FF3A80F08480A14540F281803F
:1003A400AEF1020E3C44A4EB09041FFA83F9B4FB3A
:1003B400F0F300FB134449EA044403FB0CFCA4459A
:1003C40007D93C1903F1FF3067D2A44565D9023B34
:1003D4003C4443EA0E40A0FB0293A4EB0C049C4271
:1003E400CE469C4651D34ED055B1B8EB0E0364EBC8
:1003F4000C0404FA06F6CB401E43CC40C5E9006465
:10040400002150E7C2F1200320FA03F10CFA02FCA8
:1004140024FA03F394400C434FEA1C4800FA02FE0A
:100424001FFA8CF7B3FBF8F008FB1031230C43EAF6
:10043400014300FB07F1994208D91CEB030300F1C7
:10044400FF362CD299422AD9023863445B1AA4B2EB
:10045400B3FBF8F108FB113344EA034401FB07F34F
:10046400A34208D91CEB040401F1FF3613D2A342C2
:1004740011D902396444E41A41EA004139E70446D7
:10048400F0E6084606E7C845AED2B9EB020E63EBC8
:10049400070C0138A8E73146EDE7034699E73046F3
:1004A400D4E7D6467FE7634402384DE70646234641
:1004B40008460FE7023E634430E700BF704700BFC1
:1004C40080B5ADF58E6D04AF00F0F0FC00F056F889
:1004D40000F0BAF900F098F900F0BCF800F0F0F878
:1004E40000F064F93B4607F22C420021224800F058
:1004F4008FFA4FF47A7000F04BFD062303933B46CA
:10050400029307F22C430193FF230093002300225C
:100514000021194800F0FEF9052303933B4602939A
:1005240007F22C430193FF230093002300220021B0
:10053400114800F0EFF90023C7F85C3417E0D7F84E
:100544005C3403933B46029307F22C43019300234C
:100554000093002300220021074800F0DBF9642007
:1005640000F016FDD7F85C340133C7F85C34D7F8D3
:100574005C340F2BE3DDC0E78000002080B594B02D
:1005840000AF07F1200330220021184603F0F3FCEA
:1005940007F10C0300221A605A609A60DA601A614B
:1005A4000023BB60294B1B6C284A43F0805313641F
:1005B400264B1B6C03F08053BB60BB6800237B603D
:1005C400234B1B6823F44043214A43F40043136044
:1005D4001F4B1B6803F440437B607B6801233B6231
:1005E4004FF480337B620223BB634FF48003FB63CD
:1005F40019233B644FF4A8737B640423BB6407236F
:10060400FB6407F12003184601F036FC0346002B77
:1006140001D000F079F90F23FB6002233B61002332
:100624007B614FF48053BB610023FB6107F10C0332
:100634000221184601F098FE0346002B01D000F079
:1006440063F900BF5037BD4680BD00BF003802408B
:100654000070004080B500AF174B184A1A60164B63
:100664004FF482725A60144B00229A60124B00229B
:10067400DA60114B00221A610F4B00225A610E4BB3
:100684004FF400729A610C4B0022DA610A4B00228B
:100694001A62094B00225A62074B00229A62064BE7
:1006A4000A22DA62044802F00BF80346002B01D058
:1006B40000F02AF900BF80BD28000020003001406E
:1006C40080B58EB000AF07F1280300221A605A608B
:1006D4009A60DA6007F1200300221A605A603B1D19
:1006E40000221A605A609A60DA601A615A619A614B
:1006F4002C4B2D4A1A602B4B00225A60294B0022A6
:100704009A60284B6922DA60264B00221A61254B35
:1007140000229A61234802F05CF80346002B01D0C2
:1007240000F0F2F84FF48053BB6207F12803194636
:100734001C4802F02FFC0346002B01D000F0E4F823
:10074400184802F095F80346002B01D000F0DCF8BD
:1007540000233B6200237B6207F120031946114802
:1007640003F09CF80346002B01D000F0CDF8602381
:100774007B600023BB600023FB6000237B613B1D87
:1007840000221946074802F043FB0346002B01D020
:1007940000F0BAF8034800F08DFA00BF3837BD46C0
:1007A40080BD00BF800000200008004080B500AF7D
:1007B400144B4FF0A0421A60124B04221A71114BD1
:1007C4000222DA710F4B00229A710E4B02225A72E6
:1007D4000C4B00229A720B4B0022DA72094B002256
:1007E4001A73084B00229A73064B0022DA730548E9
:1007F40001F033FA0346002B01D000F085F800BF66
:1008040080BD00BF2801002080B582B000AF002366
:100814007B600C4B1B6B0B4A43F400131363094BB3
:100824001B6B03F400137B607B68002200210B2008
:1008340000F0ADFC0B2000F0C6FC00BF0837BD463D
:1008440080BD00BF0038024080B58AB000AF07F118
:10085400140300221A605A609A60DA601A61002355
:100864003B61274B1B6B264A43F004031363244B61
:100874001B6B03F004033B613B690023FB60204BCB
:100884001B6B1F4A43F0800313631D4B1B6B03F068
:100894008003FB60FB680023BB60194B1B6B184A89
:1008A40043F001031363164B1B6B03F00103BB609E
:1008B400BB6800237B60124B1B6B114A43F002039D
:1008C40013630F4B1B6B03F002037B607B680022F6
:1008D4004FF400510B4801F0A7F94FF400537B612A
:1008E4000123BB610023FB6100233B6207F1140376
:1008F4001946044801F014F800BF2837BD4680BDEE
:10090400003802400008024080B400AF72B600BF55
:1009140000BFFDE780B588B000AFF860B96011464C
:100924001A460B46FB711346BB717A6B13465B0088
:1009340013443B613B69FA6A1344FA791A703B69C0
:100944000133FA6A1344BA791A703B690233FA6ABA
:10095400134497F828201A703B69FB612AE00023AE
:10096400BB6121E0FB69FA6A13441B781A46BB6930
:1009740002FA03F303F08003002B09D0FB69DA00C9
:10098400BB6913445B003A6B13445A221A8008E093
:10099400FB69DA00BB6913445B003A6B134414220D
:1009A4001A80BB690133BB61BB69072BDADDFB69C4
:1009B4000133FB613B690233FA699A42CFDD4FF49C
:1009C400C0737B6108E07B695B003A6B13442322AC
:1009D4001A807B6901337B617B6940F21522934263
:1009E400F1DD40F216233A6BB968F86801F09AFF1A
:1009F40000BF064B1B78DBB2002BFAD0034B00225E
:100A04001A7000BF2037BD4680BD00BF0C06002011
:100A140080B588B000AFF860B9607A603B600023AD
:100A2400FB6113E0FB697A68134400221A70FB69C6
:100A340001337A68134400221A70FB6902337A681E
:100A44001344FF221A70FB690333FB61FB692F2BEC
:100A5400E8DD0023BB612AE000237B6121E0BB6960
:100A64007A6813441B781A467B6902FA03F303F08D
:100A74008003002B09D0BB69DA007B6913445B0057
:100A84003A68134446221A8008E0BB69DA007B699D
:100A940013445B003A68134423221A807B690133B0
:100AA4007B617B69072BDADDBB690133BB61BB6901
:100AB4002F2BD1DD4FF4C0733B6108E03B695B0031
:100AC4003A68134423221A803B6901333B613B6932
:100AD40040F215229342F1DD40F216233A68B968D8
:100AE400F86801F01FFF00BF054B1B78DBB2002B39
:100AF400FAD0034B00221A7000BF2037BD4680BDD8
:100B04000C06002080B582B000AF78600021054853
:100B140002F0B8F8044B01221A7000BF0837BD4632
:100B240080BD00BF800000200C06002080B483B08C
:100B340000AF00237B60104B5B6C0F4A43F480438F
:100B440053640D4B5B6C03F480437B607B68002330
:100B54003B60094B1B6C084A43F080531364064BFB
:100B64001B6C03F080533B603B6800BF0C37BD46F1
:100B74005DF8047B704700BF0038024080B58AB03E
:100B840000AF786007F1140300221A605A609A607B
:100B9400DA601A617B681B68194A93422BD10023DF
:100BA4003B61184B5B6C174A43F480535364154BF9
:100BB4005B6C03F480533B613B690023FB60114B86
:100BC4001B6B104A43F0010313630E4B1B6B03F0C2
:100BD4000103FB60FB68E0237B610223BB6100230C
:100BE400FB6103233B6205237B6207F1140319466F
:100BF400054800F095FE00BF2837BD4680BD00BF04
:100C040000300140003802400000024080B584B04A
:100C140000AF78607B681B68224A93423ED1002370
:100C2400FB60214B1B6C204A43F0040313641E4BEE
:100C34001B6C03F00403FB60FB681C4B1C4A1A602A
:100C44001A4B4FF080625A60184B40229A60174B3F
:100C54000022DA60154B4FF480621A61134B4FF493
:100C640000625A61114B4FF400529A610F4B4FF4DA
:100C74008072DA610D4B00221A620C4B00225A6218
:100C84000A4800F0BBFA0346002B01D0FFF73CFEF4
:100C94007B68064A5A62054A7B68936300BF103733
:100CA400BD4680BD0008004000380240C800002056
:100CB4001060024080B588B000AF786007F10C0383
:100CC40000221A605A609A60DA601A617B681B68B5
:100CD400124A93421DD10023BB60114B1B6B104A77
:100CE40043F0020313630E4B1B6B03F00203BB6060
:100CF400BB684023FB6002233B6100237B6100232C
:100D0400BB610223FB6107F10C031946054800F09F
:100D140007FE00BF2037BD4680BD00BF000800406D
:100D2400003802400004024080B58AB000AF786009
:100D340007F1140300221A605A609A60DA601A619B
:100D44007B681B68B3F1A04F32D100233B611A4B7F
:100D54001B6B194A43F001031363174B1B6B03F01E
:100D640001033B613B694FF4C0537B610223BB61C8
:100D74000023FB6103233B620A237B6207F1140314
:100D840019460E4800F0CCFD0B4B5B6B0A4A43F04E
:100D9400800353630023FB60074B5B6C064A43F4F8
:100DA40080435364044B5B6C03F48043FB60FB6837
:100DB40000BF2837BD4680BD003802400000024015
:100DC40080B400AF00BFFDE780B400AF00BFFDE713
:100DD40080B400AF00BFFDE780B400AF00BFFDE703
:100DE40080B400AF00BFFDE780B400AF00BFBD46D4
:100DF4005DF8047B704780B400AF00BFBD465DF86A
:100E0400047B704780B400AF00BFBD465DF8047B2F
:100E1400704780B500AF00F09BF800BF80BD0000B4
:100E240080B500AF024800F011FB00BF80BD00BFD9
:100E3400C800002080B400AF064BD3F88830054AC0
:100E440043F47003C2F8883000BFBD465DF8047BEC
:100E5400704700BF00ED00E0DFF834D0FFF7EAFF91
:100E64000C480D490D4A002302E0D458C450043301
:100E7400C4188C42F9D30A4A0A4C002301E01360D7
:100E84000432A242FBD303F07FF8FFF719FB70474B
:100E940000000120000000200C0000201440000885
:100EA4000C00002014060020FEE7000080B500AF0F
:100EB4000E4B1B680D4A43F4007313600B4B1B6805
:100EC4000A4A43F480631360084B1B68074A43F4DF
:100ED40080731360032000F04FF90F2000F008F82E
:100EE400FFF724FE0023184680BD00BF003C0240EB
:100EF40080B582B000AF7860124B1A68124B1B7831
:100F040019464FF47A73B3FBF1F3B2FBF3F31846CB
:100F140000F067F90346002B01D001230EE07B6843
:100F24000F2B0AD8002279684FF0FF3000F02FF918
:100F3400064A7B681360002300E001231846083743
:100F4400BD4680BD000000200800002004000020F1
:100F540080B400AF064B1B781A46064B1B6813443B
:100F6400044A136000BFBD465DF8047B704700BFB0
:100F7400080000201006002080B400AF034B1B685B
:100F84001846BD465DF8047B704700BF100600207C
:100F940080B584B000AF7860FFF7EEFFB8607B687F
:100FA400FB60FB68B3F1FF3F05D00A4B1B781A4680
:100FB400FB681344FB6000BFFFF7DEFF0246BB681B
:100FC400D31AFA689A42F7D800BF00BF1037BD465B
:100FD40080BD00BF0800002080B485B000AF7860F9
:100FE4007B6803F00703FB600C4BDB68BB60BA68EB
:100FF4004FF6FF031340BB60FB681A02BB68134340
:1010040043F0BF6343F40033BB60044ABB68D3605E
:1010140000BF1437BD465DF8047B704700ED00E067
:1010240080B400AF044BDB681B0A03F007031846C7
:10103400BD465DF8047B704700ED00E080B483B0EA
:1010440000AF0346FB7197F90730002B0BDBFB79EC
:1010540003F01F02074997F907305B09012000FAE2
:1010640002F241F8232000BF0C37BD465DF8047B33
:10107400704700BF00E100E080B483B000AF0346D6
:101084003960FB7197F90730002B0ADB3B68DAB251
:101094000C4997F907301201D2B20B4483F80023AC
:1010A4000AE03B68DAB20849FB7903F00F03043B1A
:1010B4001201D2B20B441A7600BF0C37BD465DF85C
:1010C400047B704700E100E000ED00E080B489B0EB
:1010D40000AFF860B9607A60FB6803F00703FB6156
:1010E400FB69C3F10703042B28BF0423BB61FB691D
:1010F4000433062B02D9FB69033B00E000237B6128
:101104004FF0FF32BB6902FA03F3DA43BB681A40BB
:101114007B699A404FF0FF317B6901FA03F3D943AD
:101124007B680B40134318462437BD465DF8047BA7
:101134007047000080B582B000AF78607B68013BE7
:10114400B3F1807F01D301230FE00A4A7B68013B9E
:1011540053600F214FF0FF30FFF78EFF054B002245
:101164009A60044B07221A60002318460837BD46CC
:1011740080BD00BF10E000E080B582B000AF7860B1
:101184007868FFF729FF00BF0837BD4680BD80B5EA
:1011940086B000AF0346B9607A60FB7300237B61BD
:1011A400FFF73EFF78617A68B9687869FFF78EFFC8
:1011B400024697F90F3011461846FFF75DFF00BF4E
:1011C4001837BD4680BD80B582B000AF0346FB71C1
:1011D40097F907301846FFF731FF00BF0837BD46BF
:1011E40080BD80B582B000AF78607868FFF7A2FF59
:1011F400034618460837BD4680BD000080B586B05A
:1012040000AF786000237B61FFF7B6FE38617B682E
:10121400002B01D1012399E07B68022283F8352059
:101224007B68002283F834207B681B681A687B681B
:101234001B6822F001021A600FE0FFF79DFE0246D0
:101244003B69D31A052B08D97B6820225A657B6831
:10125400032283F83520032378E07B681B681B682E
:1012640003F00103002BE8D17B681B681B687B61DA
:101274007A69384B13407B617B685A687B689B684A
:101284001A437B68DB681A437B681B691A437B68D3
:101294005B691A437B689B691A437B68DB691A4361
:1012A4007B681B6A13437A6913437B617B685B6ABF
:1012B400042B07D17B68DA6A7B681B6B13437A695A
:1012C40013437B617B681B687A691A607B681B68BF
:1012D4005B697B617B6923F007037B617B685B6AE5
:1012E4007A6913437B617B685B6A042B17D17B6843
:1012F4009B6A7A6913437B617B68DB6A002B0ED09F
:10130400786800F091FA0346002B08D07B684022ED
:101314005A657B68012283F83520012316E07B6837
:101324001B687A695A61786800F048FA0346FB60E2
:101334007B68DB6D3F229A40FB689A607B680022E1
:101344005A657B68012283F8352000231846183734
:10135400BD4680BD3F8010F080B586B000AFF86018
:10136400B9607A603B600023FB75FB689B6D3B6151
:10137400FB6893F83430012B01D1022340E0FB6871
:10138400012283F83420FB6893F83530DBB2012B5B
:101394002FD1FB68022283F83520FB6800225A65AE
:1013A4003B687A68B968F86800F0DAF9FB68DB6DC5
:1013B4003F229A403B699A60FB681B681A68FB6885
:1013C4001B6842F016021A60FB681B6C002B07D0E6
:1013D400FB681B681A68FB681B6842F008021A6005
:1013E400FB681B681A68FB681B6842F001021A60FC
:1013F40005E0FB68002283F834200223FB75FB7DA3
:1014040018461837BD4680BD80B483B000AF7860FD
:101414007B6893F83530DBB2022B04D07B688022E2
:101424005A6501230CE07B68052283F835207B682C
:101434001B681A687B681B6822F001021A6000238B
:1014440018460C37BD465DF8047B704780B586B0FE
:1014540000AF78600023BB608E4B1B688E4AA2FBF2
:1014640003239B0A7B617B689B6D3B613B691B6823
:10147400FB607B68DB6D08229A40FB681340002BFD
:101484001AD07B681B681B6803F00403002B13D07D
:101494007B681B681A687B681B6822F004021A6068
:1014A4007B68DB6D08229A403B699A607B685B6DC0
:1014B40043F001027B685A657B68DB6D01229A4028
:1014C400FB681340002B12D07B681B685B6903F038
:1014D4008003002B0BD07B68DB6D01229A403B69B3
:1014E4009A607B685B6D43F002027B685A657B6897
:1014F400DB6D04229A40FB681340002B12D07B68FA
:101504001B681B6803F00203002B0BD07B68DB6DA8
:1015140004229A403B699A607B685B6D43F0040245
:101524007B685A657B68DB6D10229A40FB68134028
:10153400002B43D07B681B681B6803F00803002B57
:101544003CD07B68DB6D10229A403B699A607B68D3
:101554001B681B6803F48023002B18D07B681B686E
:101564001B6803F40023002B08D17B681B6C002B41
:1015740024D07B681B6C786898471FE07B689B6C61
:10158400002B1BD07B689B6C7868984716E07B68BF
:101594001B681B6803F48073002B07D17B681B68EE
:1015A4001A687B681B6822F008021A607B681B6C4F
:1015B400002B03D07B681B6C786898477B68DB6DD5
:1015C40020229A40FB681340002B00F08F807B6838
:1015D4001B681B6803F01003002B00F087807B68F6
:1015E400DB6D20229A403B699A607B6893F8353022
:1015F400DBB2052B36D17B681B681A687B681B68D5
:1016040022F016021A607B681B685A697B681B68A3
:1016140022F080025A617B681B6C002B03D17B682B
:101624009B6C002B07D07B681B681A687B681B685F
:1016340022F008021A607B68DB6D3F229A403B6906
:101644009A607B68012283F835207B68002283F846
:1016540034207B681B6D002B7ED07B681B6D786803
:10166400984779E07B681B681B6803F48023002B90
:101674001DD07B681B681B6803F40023002B0DD16D
:101684007B685B6C002B31D07B685B6C7868984717
:101694002CE000BF00000020B5814E1B7B68DB6B93
:1016A400002B23D07B68DB6B786898471EE07B684F
:1016B4001B681B6803F48073002B0FD17B681B68C5
:1016C4001A687B681B6822F010021A607B6801228A
:1016D40083F835207B68002283F834207B68DB6B39
:1016E400002B03D07B68DB6B786898477B685B6D65
:1016F400002B32D07B685B6D03F00103002B22D0FA
:101704007B68052283F835207B681B681A687B6830
:101714001B6822F001021A60BB680133BB607A695E
:101724009A4207D37B681B681B6803F00103002BF4
:10173400F2D100E000BF7B68012283F835207B688A
:10174400002283F834207B68DB6C002B05D07B6897
:10175400DB6C7868984700E000BF1837BD4680BD51
:1017640080B485B000AFF860B9607A603B60FB6814
:101774001B681A68FB681B6822F480221A60FB68E5
:101784001B683A685A60FB689B68402B08D1FB6869
:101794001B687A689A60FB681B68BA68DA6007E0BD
:1017A400FB681B68BA689A60FB681B687A68DA6031
:1017B40000BF1437BD465DF8047B704780B485B024
:1017C40000AF78607B681B68DBB2103B144AA2FB55
:1017D40003231B09FB60134AFB6813441B781A4656
:1017E4007B68DA65FB68032B09D97B681B6823F4E3
:1017F4007F7323F003031A1D7B689A6507E07B68F7
:101804001B6823F47F7323F003037A6893657B6872
:101814009B6D18461437BD465DF8047B704700BFC6
:10182400ABAAAAAAFC3F000880B485B000AF7860D8
:101834000023FB737B689B6ABB607B689B69002BFE
:101844001FD1BB68032B56D801A252F823F000BF66
:10185400651800087718000865180008FB180008C8
:101864007B68DB6A03F08073002B46D00123FB7393
:1018740043E07B68DB6AB3F1C07F40D10123FB7393
:101884003DE07B689B69B3F5005F21D1BB68032B06
:1018940037D801A252F823F0AD180008B318000895
:1018A400AD180008C51800080123FB7330E07B68FD
:1018B400DB6A03F08073002B25D00123FB7322E045
:1018C4007B68DB6AB3F1C07F1FD10123FB731CE08B
:1018D400BB68022B03D9BB68032B03D018E0012398
:1018E400FB7315E07B68DB6A03F08073002B0ED07A
:1018F4000123FB730BE000BF0AE000BF08E000BF58
:1019040006E000BF04E000BF02E000BF00E000BF4B
:10191400FB7B18461437BD465DF8047B704700BF57
:1019240080B489B000AF7860396000237B61002304
:101934003B610023BB610023FB6159E10122FB6988
:1019440002FA03F37B613B681B687A6913403B61CD
:101954003A697B699A4240F048813B685B6803F0CE
:101964000303012B05D03B685B6803F00303022BE0
:1019740030D17B689B68BB61FB695B00032202FA80
:1019840003F3DB43BA691340BB613B68DA68FB6964
:101994005B0002FA03F3BA691343BB617B68BA695B
:1019A4009A607B685B68BB610122FB6902FA03F3FE
:1019B400DB43BA691340BB613B685B681B0903F0F6
:1019C4000102FB6902FA03F3BA691343BB617B6842
:1019D400BA695A603B685B6803F00303032B17D0B2
:1019E4007B68DB68BB61FB695B00032202FA03F3DB
:1019F400DB43BA691340BB613B689A68FB695B00CF
:101A040002FA03F3BA691343BB617B68BA69DA600B
:101A14003B685B6803F00303022B23D1FB69DA08FC
:101A24007B68083253F82230BB61FB6903F007037B
:101A34009B000F2202FA03F3DB43BA691340BB6134
:101A44003B681A69FB6903F007039B0002FA03F37E
:101A5400BA691343BB61FB69DA087B680832B96968
:101A640043F822107B681B68BB61FB695B0003229F
:101A740002FA03F3DB43BA691340BB613B685B685A
:101A840003F00302FB695B0002FA03F3BA69134330
:101A9400BB617B68BA691A603B685B6803F44033D6
:101AA400002B00F0A2800023FB60574B5B6C564A6E
:101AB40043F480435364544B5B6C03F48043FB60F6
:101AC400FB68524AFB699B08023352F82330BB611E
:101AD400FB6903F003039B000F2202FA03F3DB43C9
:101AE400BA691340BB617B68494A934219D07B6849
:101AF400484A934213D07B68474A93420DD07B688F
:101B0400464A934207D07B68454A934201D1042355
:101B140008E0072306E0032304E0022302E0012394
:101B240000E00023FA6902F0030292009340BA69CC
:101B34001343BB613549FB699B080233BA6941F819
:101B44002320384B9B68BB613B69DB43BA69134074
:101B5400BB613B685B6803F48013002B03D0BA6954
:101B64003B691343BB612F4ABB6993602D4BDB6810
:101B7400BB613B69DB43BA691340BB613B685B688B
:101B840003F40013002B03D0BA693B691343BB6110
:101B9400244ABB69D360234B5B68BB613B69DB436D
:101BA400BA691340BB613B685B6803F40033002BE4
:101BB40003D0BA693B691343BB611A4ABB695360DA
:101BC400184B1B68BB613B69DB43BA691340BB61BB
:101BD4003B685B6803F48033002B03D0BA693B692C
:101BE4001343BB610F4ABB691360FB690133FB619B
:101BF400FB690F2B7FF6A2AE00BF00BF2437BD46A2
:101C04005DF8047B704700BF003802400038014093
:101C1400000002400004024000080240000C0240A0
:101C240000100240003C014080B483B000AF7860F3
:101C34000B467B8013467B707B78002B03D07A881D
:101C44007B689A6103E07B881A047B689A6100BF11
:101C54000C37BD465DF8047B704780B586B002AF93
:101C640078607B68002B01D1012301E17B681B684C
:101C7400BB607B6893F89534DBB2002B06D17B689C
:101C8400002283F894247868FFF74EF87B680322D7
:101C940083F89524BB68B3F1A04F02D17B6800227E
:101CA4009A717B681B68184601F0CAFE7B68186845
:101CB4007B681A7C8DF8002004330ECB01F05CFEA7
:101CC4000346002B05D07B68022283F89524012368
:101CD400CEE07B681B680021184601F0C2FE034673
:101CE400002B05D07B68022283F895240123BFE0F2
:101CF4000023FB734AE0FA7B79681346DB00134444
:101D04009B000B44153301221A70FA7B7968134641
:101D1400DB0013449B000B441433FA7B1A70FA7BE8
:101D2400FB7B98B279681346DB0013449B000B4499
:101D34002E3302461A80FA7B79681346DB0013447B
:101D44009B000B44183300221A70FA7B79681346FF
:101D5400DB0013449B000B441C3300221A60FA7B03
:101D640079681346DB0013449B000B4420330022A4
:101D74001A60FA7B79681346DB0013449B000B441A
:101D8400243300221A60FB7B0133FB737B681B79CD
:101D9400FA7B9A42AFD30023FB7344E0FA7B796861
:101DA4001346DB0013449B000B4403F2552300222B
:101DB4001A70FA7B79681346DB0013449B000B44CA
:101DC40003F51573FA7B1A70FA7B79681346DB0006
:101DD40013449B000B4403F5167300221A70FA7B1C
:101DE40079681346DB0013449B000B4403F5177317
:101DF40000221A60FA7B79681346DB0013449B00C7
:101E04000B4403F5187300221A60FA7B79681346B1
:101E1400DB0013449B000B4403F5197300221A6082
:101E2400FB7B0133FB737B681B79FA7B9A42B5D346
:101E34007B6818687B681A7C8DF8002004330ECB0D
:101E440001F05CFE0346002B05D07B68022283F878
:101E5400952401230CE07B6800225A747B680122DC
:101E640083F895247B681B68184602F024F8002345
:101E740018461037BD4680BD80B586B000AF786087
:101E84007B68002B01D1012367E27B681B6803F0A8
:101E94000103002B75D0884B9B6803F00C03042BC3
:101EA4000CD0854B9B6803F00C03082B12D1824B9A
:101EB4005B6803F48003B3F5800F0BD17E4B1B6882
:101EC40003F40033002B5BD07B685B68002B57D195
:101ED400012342E27B685B68B3F5803F06D1764B11
:101EE4001B68754A43F4803313601DE07B685B68AC
:101EF400B3F5A02F0CD1704B1B686F4A43F48023B9
:101F040013606D4B1B686C4A43F4803313600BE021
:101F1400694B1B68684A23F480331360664B1B6863
:101F2400654A23F4802313607B685B68002B13D01D
:101F3400FFF722F8386108E0FFF71EF802463B6914
:101F4400D31A642B01D9032307E25B4B1B6803F408
:101F54000033002BF0D014E0FFF70EF8386108E0EE
:101F6400FFF70AF802463B69D31A642B01D903230D
:101F7400F3E1514B1B6803F40033002BF0D100E074
:101F840000BF7B681B6803F00203002B63D04A4B3D
:101F94009B6803F00C03002B0BD0474B9B6803F0AA
:101FA4000C03082B1CD1444B5B6803F48003002B07
:101FB40016D1414B1B6803F00203002B05D07B684C
:101FC400DB68012B01D00123C7E13B4B1B6823F0E5
:101FD400F8027B681B69DB00374913430B603AE066
:101FE4007B68DB68002B20D0344B01221A60FEF79B
:101FF400C3FF386108E0FEF7BFFF02463B69D31A0E
:10200400022B01D90323A8E12B4B1B6803F0020325
:10201400002BF0D0284B1B6823F0F8027B681B6967
:10202400DB00254913430B6015E0244B00221A60A2
:10203400FEF7A2FF386108E0FEF79EFF02463B6907
:10204400D31A022B01D9032387E11B4B1B6803F02E
:102054000203002BF0D17B681B6803F00803002BFC
:1020640036D07B685B69002B16D0154B01221A60B1
:10207400FEF782FF386108E0FEF77EFF02463B6907
:10208400D31A022B01D9032367E10B4B5B6F03F0D7
:102094000203002BF0D01BE0094B00221A60FEF76C
:1020A4006BFF38610EE0FEF767FF02463B69D31A07
:1020B400022B07D9032350E10038024000004742B5
:1020C400800E4742884B5B6F03F00203002BEAD17A
:1020D4007B681B6803F00403002B00F09780002347
:1020E400FB75814B1B6C03F08053002B0FD1002335
:1020F400BB607D4B1B6C7C4A43F0805313647A4B6A
:102104001B6C03F08053BB60BB680123FB75774BEA
:102114001B6803F48073002B18D1744B1B68734A3B
:1021240043F480731360FEF727FF386108E0FEF77D
:1021340023FF02463B69D31A022B01D903230CE186
:102144006A4B1B6803F48073002BF0D07B689B6898
:10215400012B06D1644B1B6F634A43F001031367E1
:102164001CE07B689B68052B0CD15F4B1B6F5E4AA0
:1021740043F0040313675C4B1B6F5B4A43F001039A
:1021840013670BE0584B1B6F574A23F00103136787
:10219400554B1B6F544A23F0040313677B689B68F9
:1021A400002B15D0FEF7E8FE38610AE0FEF7E4FEE6
:1021B40002463B69D31A41F28832934201D9032380
:1021C400CBE0494B1B6F03F00203002BEED014E06D
:1021D400FEF7D2FE38610AE0FEF7CEFE02463B6906
:1021E400D31A41F28832934201D90323B5E03E4B1E
:1021F4001B6F03F00203002BEED1FB7D012B05D1F5
:10220400394B1B6C384A23F0805313647B689B69F9
:10221400002B00F0A180344B9B6803F00C03082BC7
:102224005CD07B689B69022B41D1314B00221A6040
:10223400FEF7A2FE386108E0FEF79EFE02463B6907
:10224400D31A022B01D9032387E0274B1B6803F021
:102254000073002BF0D17B68DA697B681B6A1A4330
:102264007B685B6A9B011A437B689B6A5B08013B42
:102274001B041A437B68DB6A1B061B4913434B6030
:102284001B4B01221A60FEF777FE386108E0FEF767
:1022940073FE02463B69D31A022B01D903235CE087
:1022A400114B1B6803F00073002BF0D054E0104B6B
:1022B40000221A60FEF760FE386108E0FEF75CFE5B
:1022C40002463B69D31A022B01D9032345E0064B8E
:1022D4001B6803F00073002BF0D13DE07B689B6921
:1022E400012B07D1012338E0003802400070004080
:1022F400600047421B4B5B68FB607B689B69012B5A
:1023040028D0FB6803F480027B68DB699A4221D100
:10231400FB6803F03F027B681B6A9A421AD1FA6891
:1023240047F6C07313407A68526A9201934211D1FE
:10233400FB6803F440327B689B6A5B08013B1B0427
:102344009A4207D1FB6803F070627B68DB6A1B0664
:102354009A4201D0012300E0002318461837BD46F5
:1023640080BD00BF0038024080B584B000AF786003
:1023740039607B68002B01D10123CCE0684B1B68DA
:1023840003F007033A689A420CD9654B3A68D2B213
:102394001A70634B1B6803F007033A689A4201D032
:1023A4000123B8E07B681B6803F00203002B20D0F4
:1023B4007B681B6803F00403002B05D0594B9B6812
:1023C400584A43F4E05393607B681B6803F00803A6
:1023D400002B05D0534B9B68524A43F460439360EF
:1023E400504B9B6823F0F0027B689B684D49134374
:1023F4008B607B681B6803F00103002B44D07B686F
:102404005B68012B07D1474B1B6803F40033002B97
:1024140019D101237FE07B685B68022B03D07B68C2
:102424005B68032B07D13F4B1B6803F00073002B41
:1024340009D101236FE03B4B1B6803F00203002B1F
:1024440001D1012367E0374B9B6823F003027B68CB
:102454005B68344913438B60FEF78EFDF8600AE035
:10246400FEF78AFD0246FB68D31A41F28832934292
:1024740001D903234FE02B4B9B6803F00C027B68CC
:102484005B689B009A42EBD1254B1B6803F0070362
:102494003A689A420CD2224B3A68D2B21A70204B54
:1024A4001B6803F007033A689A4201D0012332E023
:1024B4007B681B6803F00403002B08D0194B9B684E
:1024C40023F4E0527B68DB68164913438B607B6816
:1024D4001B6803F00803002B09D0124B9B6823F4FC
:1024E40060427B681B69DB000E4913438B6000F07C
:1024F40021F802460B4B9B681B0903F00F030A49A2
:10250400CB5C22FA03F3094A1360094B1B68184693
:10251400FEF7EEFC002318461037BD4680BD00BF11
:10252400003C024000380240EC3F0008000000205C
:10253400040000202DE9B04F90B000AF00237B636E
:102544000023FB6300233B630023BB63594B9B685D
:1025540003F00C03082B0DD0082B00F2A180002BF4
:1025640002D0042B03D09BE0534BBB639BE0534B43
:10257400BB6398E04F4B5B6803F03F037B634D4BB9
:102584005B6803F48003002B28D04A4B5B689B09EB
:1025940000223B627A623B6AC3F308000021474B86
:1025A40003FB01F2002300FB03F31344434AA0FBA3
:1025B4000212FA620A46BA62FA6A1344FB627B6B3D
:1025C4000022BB61FA61D7E90623D7E90A01FDF7C6
:1025D400FFFD02460B461346FB6353E0354B5B6835
:1025E4009B0900223B617A613B69C3F3080A4FF0FF
:1025F400000B52465B464FF000004FF000015901BA
:1026040041EAD261500102460B46B2EB0A0863EB81
:102614000B094FF000024FF000034FEA891343EA1D
:1026240098634FEA8812B2EB080463EB09054FF094
:1026340000024FF00003EB0043EA5473E200144637
:102644001D4614EB0A033B6045EB0B037B604FF024
:1026540000024FF00003D7E9004529468B022146CA
:1026640043EA915321468A02104619467B6B0022A5
:10267400BB60FA60D7E90223FDF7AAFD02460B46C8
:102684001346FB630B4B5B681B0C03F00303013322
:102694005B003B63FA6B3B6BB2FBF3F3BB6302E09F
:1026A400054BBB6300BFBB6B18464037BD46BDE856
:1026B400B08F00BF003802400024F40040787D0150
:1026C40080B582B000AF78607B68002B01D1012314
:1026D4007BE07B685B6A002B08D17B685B68B3F5A1
:1026E400827F09D07B680022DA6105E07B680022E2
:1026F4001A617B6800225A617B6800229A627B68B7
:1027040093F85130DBB2002B06D17B68002283F8AA
:1027140050207868FEF732FA7B68022283F8512051
:102724007B681B681A687B681B6822F040021A6089
:102734007B685B6803F482727B689B6803F40443E0
:102744001A437B68DB6803F400631A437B681B69E4
:1027540003F002031A437B685B6903F001031A4325
:102764007B689B6903F400731A437B68DB6903F09D
:1027740038031A437B681B6A03F0800342EA0301AF
:102784007B689B6A03F400527B681B680A431A60E7
:102794007B689B691B0C03F004017B685B6A03F094
:1027A40010027B681B680A435A607B681B68DA69FD
:1027B4007B681B6822F40062DA617B6800225A6538
:1027C4007B68012283F85120002318460837BD4650
:1027D40080BD80B582B000AF78607B68002B01D1EA
:1027E400012341E07B6893F83D30DBB2002B06D136
:1027F4007B68002283F83C207868FEF707FA7B6840
:10280400022283F83D207B681A687B6804331946EA
:10281400104600F06BFD7B68012283F846207B683C
:10282400012283F83E207B68012283F83F207B68E5
:10283400012283F840207B68012283F841207B68D1
:10284400012283F842207B68012283F843207B68BD
:10285400012283F844207B68012283F845207B68A9
:10286400012283F83D20002318460837BD4680BD69
:1028740080B582B000AF78607B68002B01D1012362
:1028840041E07B6893F83D30DBB2002B06D17B68D6
:10289400002283F83C20786800F039F87B68022233
:1028A40083F83D207B681A687B6804331946104618
:1028B40000F01CFD7B68012283F846207B6801221E
:1028C40083F83E207B68012283F83F207B68012245
:1028D40083F840207B68012283F841207B68012231
:1028E40083F842207B68012283F843207B6801221D
:1028F40083F844207B68012283F845207B68012209
:1029040083F83D20002318460837BD4680BD80B4B7
:1029140083B000AF786000BF0C37BD465DF8047B20
:102924007047000080B586B000AFF860B9607A6087
:102934007B800023FB75BB68002B09D1FB6893F8EF
:102944003E30DBB2022B0CBF01230023DBB222E0BA
:10295400BB68042B09D1FB6893F83F30DBB2022B30
:102964000CBF01230023DBB215E0BB68082B09D19F
:10297400FB6893F84030DBB2022B0CBF0123002329
:10298400DBB208E0FB6893F84130DBB2022B0CBFEA
:1029940001230023DBB2002B01D002235DE1BB68DD
:1029A400002B09D1FB6893F83E30DBB2012B0CBF3E
:1029B40001230023DBB222E0BB68042B09D1FB68AE
:1029C40093F83F30DBB2012B0CBF01230023DBB2B1
:1029D40015E0BB68082B09D1FB6893F84030DBB2E3
:1029E400012B0CBF01230023DBB208E0FB6893F842
:1029F4004130DBB2012B0CBF01230023DBB2002BDF
:102A040024D07B68002B02D07B88002B01D10123CA
:102A140023E1BB68002B04D1FB68022283F83E202B
:102A240016E0BB68042B04D1FB68022283F83F2024
:102A34000EE0BB68082B04D1FB68022283F8402017
:102A440006E0FB68022283F8412001E0012304E14F
:102A5400BB680C2B00F2AE8001A252F823F000BF39
:102A6400992A0008B92B0008B92B0008B92B0008D3
:102A7400E12A0008B92B0008B92B0008B92B00087B
:102A8400292B0008B92B0008B92B0008B92B000822
:102A9400712B0008FB685B6A724ADA63FB685B6A45
:102AA400714A1A64FB685B6A704ADA64FB68586AA4
:102AB4007968FB681B6834331A467B88FEF74CFC44
:102AC4000346002B01D00123C7E0FB681B68DA68CA
:102AD400FB681B6842F40072DA606EE0FB689B6A74
:102AE400604ADA63FB689B6A5F4A1A64FB689B6A04
:102AF4005E4ADA64FB68986A7968FB681B68383355
:102B04001A467B88FEF728FC0346002B01D00123DC
:102B1400A3E0FB681B68DA68FB681B6842F4806208
:102B2400DA604AE0FB68DB6A4E4ADA63FB68DB6A18
:102B34004D4A1A64FB68DB6A4C4ADA64FB68D86A5B
:102B44007968FB681B683C331A467B88FEF704FCF3
:102B54000346002B01D001237FE0FB681B68DA6881
:102B6400FB681B6842F40062DA6026E0FB681B6BBA
:102B74003C4ADA63FB681B6B3B4A1A64FB681B6BB9
:102B84003A4ADA64FB68186B7968FB681B6840335F
:102B94001A467B88FEF7E0FB0346002B01D0012395
:102BA4005BE0FB681B68DA68FB681B6842F48052D0
:102BB400DA6002E00123FB7500BFFB7D002B4BD1E3
:102BC400FB681B680122B968184600F041FEFB68E7
:102BD4001B68274A934207D1FB681B685A6CFB6841
:102BE4001B6842F400425A64FB681B68204A934203
:102BF40018D0FB681B68B3F1804F13D0FB681B68C7
:102C04001C4A93420ED0FB681B681B4A934209D0AE
:102C1400FB681B68194A934204D0FB681B68184A76
:102C2400934211D1FB681B689B6803F007033B6167
:102C34003B69062B10D0FB681B681A68FB681B688D
:102C440042F001021A6007E0FB681B681A68FB681F
:102C54001B6842F001021A60FB7D18461837BD4616
:102C640080BD00BFE1310008893200084F310008FF
:102C7400000001400004004000080040000C004037
:102C84000040014080B584B000AF78603960002313
:102C9400FB733B680C2B55D801A252F823F000BFFC
:102CA400D92C0008492D0008492D0008492D000899
:102CB400F52C0008492D0008492D0008492D00086D
:102CC400112D0008492D0008492D0008492D000840
:102CD4002D2D00087B681B68DA687B681B6822F46A
:102CE4000072DA607B685B6A1846FEF78DFB2CE0A5
:102CF4007B681B68DA687B681B6822F48062DA6090
:102D04007B689B6A1846FEF77FFB1EE07B681B68A6
:102D1400DA687B681B6822F40062DA607B68DB6A2D
:102D24001846FEF771FB10E07B681B68DA687B6865
:102D34001B6822F48052DA607B681B6B1846FEF72E
:102D440063FB02E00123FB7300BFFB7B002B57D125
:102D54007B681B6800223968184600F079FD7B689F
:102D64001B682A4A934217D17B681B681A6A41F28E
:102D740011131340002B0FD17B681B681A6A40F2B1
:102D840044431340002B07D17B681B685A6C7B6853
:102D94001B6822F400425A647B681B681A6A41F279
:102DA40011131340002B0FD17B681B681A6A40F281
:102DB40044431340002B07D17B681B681A687B6867
:102DC4001B6822F001021A603B68002B04D17B6867
:102DD400012283F83E2013E03B68042B04D17B6876
:102DE400012283F83F200BE03B68082B04D17B6869
:102DF400012283F8402003E07B68012283F841200C
:102E0400FB7B18461037BD4680BD00BF0000014063
:102E140080B586B000AFF860B9607A600023FB75B6
:102E2400FB6893F83C30012B01D10223AEE0FB6830
:102E3400012283F83C207B680C2B00F29F8001A2C6
:102E440052F823F07D2E0008812F0008812F0008FE
:102E5400812F0008BD2E0008812F0008812F000853
:102E6400812F0008FF2E0008812F0008812F000801
:102E7400812F00083F2F0008FB681B68B9681846BB
:102E840000F0C0FAFB681B689A69FB681B6842F093
:102E940008029A61FB681B689A69FB681B6822F048
:102EA40004029A61FB681B689969BB681A69FB682C
:102EB4001B680A439A6164E0FB681B68B96818469A
:102EC40000F006FBFB681B689A69FB681B6842F408
:102ED40000629A61FB681B689A69FB681B6822F4AC
:102EE40080629A61FB681B689969BB681B691A0256
:102EF400FB681B680A439A6143E0FB681B68B96876
:102F0400184600F051FBFB681B68DA69FB681B6814
:102F140042F00802DA61FB681B68DA69FB681B6827
:102F240022F00402DA61FB681B68D969BB681A697C
:102F3400FB681B680A43DA6123E0FB681B68B96815
:102F4400184600F09BFBFB681B68DA69FB681B688A
:102F540042F40062DA61FB681B68DA69FB681B688B
:102F640022F48062DA61FB681B68D969BB681B695B
:102F74001A02FB681B680A43DA6102E00123FB754D
:102F840000BFFB68002283F83C20FB7D18461837FD
:102F9400BD4680BD80B584B000AF78603960002341
:102FA400FB737B6893F83C30012B01D10223B4E01E
:102FB4007B68012283F83C207B68022283F83D2051
:102FC4007B681B689B68BB60BB6823F07703BB60AE
:102FD400BB6823F47F43BB607B681B68BA689A6054
:102FE4003B681B68B3F5005F3ED0B3F5005F00F2A9
:102FF4008780B3F5805F00F08680B3F5805F7FD86B
:10300400702B1AD0702B7BD8602B50D0602B77D8C4
:10301400502B3CD0502B73D8402B58D0402B6FD81A
:10302400302B64D0302B6BD8202B60D0202B67D86A
:10303400002B5CD0102B5AD062E07B6818683B6888
:1030440099683B685A683B68DB6800F0E1FB7B6881
:103054001B689B68BB60BB6843F07703BB607B68FD
:103064001B68BA689A604FE07B6818683B68996887
:103074003B685A683B68DB6800F0CAFB7B681B68E6
:103084009A687B681B6842F480429A603CE07B68E3
:1030940018683B6859683B68DB681A4600F03EFBD9
:1030A4007B681B685021184600F097FB2CE07B6876
:1030B40018683B6859683B68DB681A4600F05DFB9A
:1030C4007B681B686021184600F087FB1CE07B6866
:1030D40018683B6859683B68DB681A4600F01EFBB9
:1030E4007B681B684021184600F077FB0CE07B6886
:1030F4001A683B681B681946104600F06EFB03E033
:103104000123FB7300E000BF7B68012283F83D20AC
:103114007B68002283F83C20FB7B18461037BD46B1
:1031240080BD80B483B000AF786000BF0C37BD466B
:103134005DF8047B704780B483B000AF786000BF53
:103144000C37BD465DF8047B704780B584B000AF92
:1031540078607B689B6BFB60FB685B6A7A689A4269
:1031640007D1FB6801221A77FB68012283F83E200D
:103174002AE0FB689B6A7A689A4207D1FB680222BC
:103184001A77FB68012283F83F201DE0FB68DB6AA5
:103194007A689A4207D1FB6804221A77FB680122F5
:1031A40083F8402010E0FB681B6B7A689A4207D1D1
:1031B400FB6808221A77FB68012283F8412003E0A8
:1031C400FB68012283F83D20F868FFF7B4FFFB6831
:1031D40000221A7700BF1037BD4680BD80B584B089
:1031E40000AF78607B689B6BFB60FB685B6A7A6806
:1031F4009A420BD1FB6801221A777B68DB69002BAA
:1032040036D1FB68012283F83E2031E0FB689B6ADB
:103214007A689A420BD1FB6802221A777B68DB69D1
:10322400002B25D1FB68012283F83F2020E0FB68B6
:10323400DB6A7A689A420BD1FB6804221A777B68AE
:10324400DB69002B14D1FB68012283F840200FE0D6
:10325400FB681B6B7A689A420AD1FB6808221A77CA
:103264007B68DB69002B03D1FB68012283F84120D2
:10327400F868FDF747FCFB6800221A7700BF103797
:10328400BD4680BD80B584B000AF78607B689B6B21
:10329400FB60FB685B6A7A689A4203D1FB6801228F
:1032A4001A7719E0FB689B6A7A689A4203D1FB6833
:1032B40002221A7710E0FB68DB6A7A689A4203D12B
:1032C400FB6804221A7707E0FB681B6B7A689A4252
:1032D40002D1FB6808221A77F868FFF722FFFB681F
:1032E40000221A7700BF1037BD4680BD80B485B078
:1032F40000AF786039607B681B68FB607B683A4A82
:1033040093420FD07B68B3F1804F0BD07B68374A70
:10331400934207D07B68364A934203D07B68354A90
:10332400934208D1FB6823F07003FB603B685B6841
:10333400FA681343FB607B682B4A93421BD07B687B
:10334400B3F1804F17D07B68284A934213D07B682F
:10335400274A93420FD07B68264A93420BD07B685E
:10336400254A934207D07B68244A934203D07B6862
:10337400234A934208D1FB6823F44073FB603B6803
:10338400DB68FA681343FB60FB6823F080023B6848
:103394005B691343FB607B68FA681A603B689A6850
:1033A4007B68DA623B681A687B689A627B680E4ABB
:1033B400934203D13B681A697B681A637B680122D4
:1033C4005A617B681B6903F00103012B05D17B68FB
:1033D4001B6923F001027B681A6100BF1437BD46E4
:1033E4005DF8047B704700BF00000140000400400A
:1033F40000080040000C004000400140004401402F
:103404000048014080B487B000AF786039607B68C1
:103414001B6A7B617B681B6A23F001027B681A626A
:103424007B685B683B617B689B69FB60FB6823F09E
:103434007003FB60FB6823F00303FB603B681B68BD
:10344400FA681343FB607B6923F002037B613B68EA
:103454009B687A6913437B617B681C4A93420CD155
:103464007B6923F008037B613B68DB687A6913435B
:103474007B617B6923F004037B617B68134A93427D
:1034840011D13B6923F480733B613B6923F40073DE
:103494003B613B685B693A6913433B613B689B69E9
:1034A4003A6913433B617B683A695A607B68FA68FE
:1034B4009A613B685A687B685A637B687A691A62C6
:1034C40000BF1C37BD465DF8047B70470000014017
:1034D40080B487B000AF786039607B681B6A7B6119
:1034E4007B681B6A23F010027B681A627B685B6846
:1034F4003B617B689B69FB60FB6823F4E043FB60F2
:10350400FB6823F44073FB603B681B681B02FA688A
:103514001343FB607B6923F020037B613B689B685A
:103524001B017A6913437B617B681E4A93420DD168
:103534007B6923F080037B613B68DB681B017A694C
:1035440013437B617B6923F040037B617B68154AED
:10355400934213D13B6923F480633B613B6923F4B9
:1035640000633B613B685B699B003A6913433B61C1
:103574003B689B699B003A6913433B617B683A69EA
:103584005A607B68FA689A613B685A687B689A63F8
:103594007B687A691A6200BF1C37BD465DF8047BFC
:1035A400704700BF0000014080B487B000AF78606E
:1035B40039607B681B6A7B617B681B6A23F48072B9
:1035C4007B681A627B685B683B617B68DB69FB60D4
:1035D400FB6823F07003FB60FB6823F00303FB60CC
:1035E4003B681B68FA681343FB607B6923F4007330
:1035F4007B613B689B681B027A6913437B617B6830
:103604001D4A93420DD17B6923F400637B613B68BF
:10361400DB681B027A6913437B617B6923F4806353
:103624007B617B68144A934213D13B6923F4805332
:103634003B613B6923F400533B613B685B691B01BD
:103644003A6913433B613B689B691B013A69134325
:103654003B617B683A695A607B68FA68DA613B6867
:103664005A687B68DA637B687A691A6200BF1C3720
:10367400BD465DF8047B70470000014080B487B00C
:1036840000AF786039607B681B6A3B617B681B6AAA
:1036940023F480527B681A627B685B687B617B6879
:1036A400DB69FB60FB6823F4E043FB60FB6823F405
:1036B4004073FB603B681B681B02FA681343FB60A2
:1036C4003B6923F400533B613B689B681B033A69E5
:1036D40013433B617B68104A934209D17B6923F40D
:1036E40080437B613B685B699B017A6913437B611F
:1036F4007B687A695A607B68FA68DA613B685A6861
:103704007B681A647B683A691A6200BF1C37BD463D
:103714005DF8047B704700BF0000014080B487B0AF
:1037240000AFF860B9607A60FB681B6A7B61FB6874
:103734001B6A23F00102FB681A62FB689B693B6108
:103744003B6923F0F0033B617B681B013A69134337
:103754003B617B6923F00A037B617A69BB6813438D
:103764007B61FB683A699A61FB687A691A6200BFF7
:103774001C37BD465DF8047B704780B487B000AF4A
:10378400F860B9607A60FB681B6A7B61FB681B6A3E
:1037940023F01002FB681A62FB689B693B613B697A
:1037A40023F470433B617B681B033A6913433B6119
:1037B4007B6923F0A0037B61BB681B017A69134317
:1037C4007B61FB683A699A61FB687A691A6200BF97
:1037D4001C37BD465DF8047B704780B485B000AFEC
:1037E400786039607B689B68FB60FB6823F070033A
:1037F400FB603A68FB68134343F00703FB607B6894
:10380400FA689A6000BF1437BD465DF8047B7047C0
:1038140080B487B000AFF860B9607A603B60FB6841
:103824009B687B617B6923F47F437B613B681A025D
:103834007B681A43BB6813437A6913437B61FB6853
:103844007A699A6000BF1C37BD465DF8047B7047F7
:1038540080B487B000AFF860B9607A60BB6803F0E9
:103864001F03012202FA03F37B61FB681A6A7B6976
:10387400DB431A40FB681A62FB681A6ABB6803F0F0
:103884001F03796801FA03F31A43FB681A6200BF45
:103894001C37BD465DF8047B7047000080B485B0DA
:1038A40000AF786039607B6893F83C30012B01D11C
:1038B400022350E07B68012283F83C207B680222CB
:1038C40083F83D207B681B685B68FB607B681B6832
:1038D4009B68BB60FB6823F07003FB603B681B685C
:1038E400FA681343FB607B681B68FA685A607B685C
:1038F4001B681C4A934218D07B681B68B3F1804F45
:1039040013D07B681B68184A93420ED07B681B68EF
:10391400164A934209D07B681B68154A934204D027
:103924007B681B68134A93420CD1BB6823F0800365
:10393400BB603B685B68BA681343BB607B681B6809
:10394400BA689A607B68012283F83D207B68002274
:1039540083F83C20002318461437BD465DF8047BE9
:10396400704700BF00000140000400400008004010
:10397400000C00400040014084B080B584B000AF2A
:10398400786007F11C0080E80E0097F82130012BC5
:1039940023D17B689B6B23F480327B689A637B68BA
:1039A400DB6823F4840323F040037A68D3607B68E4
:1039B400DB6823F440127B68DA6097F82830012B27
:1039C40005D17B68DB6843F480127B68DA60786831
:1039D40000F0A0FA0346FB731BE07B68DB6843F04E
:1039E40040027B68DA60786800F094FA0346FB735F
:1039F40097F82530002B06D17B689B6B43F480320B
:103A04007B689A6305E07B689B6B23F480327B6858
:103A14009A63BB7F012B0BD17B689B6843F0060242
:103A24007B689A607B689B6843F020027B689A609D
:103A3400FB7B18461037BD46BDE8804004B0704794
:103A440080B483B000AF78607B689B6823F0010288
:103A54007B689A60002318460C37BD465DF8047BEA
:103A6400704780B584B000AF78600B46FB700023CC
:103A7400FB607B68DB6823F0C0427B68DA60FB781C
:103A8400012B15D17B68DB6843F000527B68DA6058
:103A94000A20FDF77DFAFB680A33FB60786800F0C2
:103AA4002BFA0346012B1ED0FB68C72BF0D91AE072
:103AB400FB78002B15D17B68DB6843F080427B6880
:103AC400DA600A20FDF764FAFB680A33FB60786861
:103AD40000F012FA0346002B05D0FB68C72BF0D97F
:103AE40001E0012305E0FB68C82B01D1012300E0BC
:103AF400002318461037BD4680BD000084B080B551
:103B040086B000AF786007F1240080E80E0000233F
:103B1400FB757B68FB6000233B6109E07A683B69C5
:103B240040339B00134400225A603B6901333B61DC
:103B34003B690E2BF2D997F82E30002B1CD1FB6871
:103B440003F500635B68FA6802F5006243F0020360
:103B540053607B689B6B43F400127B689A637B68B9
:103B64009B6B23F400227B689A637B689B6B23F432
:103B740080227B689A630BE07B689B6B23F40012C2
:103B84007B689A637B689B6B43F400227B689A632F
:103B9400FB6803F560631A460023136097F8293025
:103BA400012B0DD197F82730002B04D10021786820
:103BB40000F068F908E00121786800F063F903E097
:103BC4000321786800F05EF91021786800F0FAF8B3
:103BD4000346002B01D00123FB75786800F024F91B
:103BE4000346002B01D00123FB75FB6803F500633A
:103BF4001A4600231361FB6803F500631A46002389
:103C04005361FB6803F500631A460023D361002364
:103C14003B6143E03B695A01FB68134403F51063BD
:103C24001B6803F00043B3F1004F18D13B69002B2C
:103C34000AD13B695A01FB68134403F510631A4621
:103C44004FF00063136013E03B695A01FB681344AF
:103C540003F510631A464FF09043136008E03B6984
:103C64005A01FB68134403F510631A4600231360DA
:103C74003B695A01FB68134403F510631A46002399
:103C840013613B695A01FB68134403F510631A4638
:103C94004FF67F3393603B6901333B6197F82430DF
:103CA4001A463B699342B5D300233B6143E03B6929
:103CB4005A01FB68134403F530631B6803F00043A7
:103CC400B3F1004F18D13B69002B0AD13B695A016B
:103CD400FB68134403F530631A464FF00063136026
:103CE40013E03B695A01FB68134403F530631A4639
:103CF4004FF09043136008E03B695A01FB6813449A
:103D040003F530631A46002313603B695A01FB68CC
:103D1400134403F530631A46002313613B695A01C7
:103D2400FB68134403F530631A464FF67F33936000
:103D34003B6901333B6197F824301A463B6993424F
:103D4400B5D3FB6803F500631B69FA6802F50062EA
:103D540023F4807313617B6800229A617B686FF09F
:103D640080425A6197F82630002B05D17B689B6905
:103D740043F010027B689A617B689A69104B134385
:103D84007A68936197F82A30002B05D07B689B6989
:103D940043F008027B689A6197F82E30012B07D113
:103DA4007B689B6943F0804343F004037A68936122
:103DB400FB7D18461837BD46BDE8804004B0704707
:103DC40000383C8080B485B000AF7860396000234F
:103DD400FB60FB680133FB60FB68B3F1706F01D9D2
:103DE40003231BE07B681B69002BF2DA0023FB60D2
:103DF4003B689B0143F020027B681A61FB68013336
:103E0400FB60FB68B3F1706F01D9032306E07B68A4
:103E14001B6903F02003202BF0D00023184614372D
:103E2400BD465DF8047B704780B485B000AF786010
:103E34000023FB60FB680133FB60FB68B3F1706F28
:103E440001D9032318E07B681B69002BF2DA0023F5
:103E5400FB607B6810221A61FB680133FB60FB681E
:103E6400B3F1706F01D9032306E07B681B6903F08B
:103E74001003102BF0D0002318461437BD465DF80C
:103E8400047B704780B485B000AF78600B46FB704C
:103E94007B68FB60FB6803F500631A68FB78F968CC
:103EA40001F5006113430B60002318461437BD4627
:103EB4005DF8047B704780B485B000AF78607B68A0
:103EC400FB60FB6803F560631B68FA6802F56062D7
:103ED40023F003031360FB6803F500635B68FA686F
:103EE40002F5006243F002035360002318461437BE
:103EF400BD465DF8047B704780B483B000AF786042
:103F04007B685B6903F0010318460C37BD465DF816
:103F1400047B704780B485B000AF78600023FB60F9
:103F2400FB680133FB60FB68B3F1706F01D90323B5
:103F34001BE07B681B69002BF2DA0023FB607B68C3
:103F44001B6943F001027B681A61FB680133FB6063
:103F5400FB68B3F1706F01D9032306E07B681B692A
:103F640003F00103012BF0D0002318461437BD469B
:103F74005DF8047B704702440346934200D17047C6
:103F840003F8011BF9E7000070B50D4D0D4C641BDF
:103F9400A4100026A64209D10B4D0C4C00F018F8D1
:103FA400641BA4100026A64205D170BD55F8043B3D
:103FB40098470136EEE755F8043B98470136F2E797
:103FC4000C4000080C4000080C4000081040000899
:103FD400F8B500BFF8BC08BC9E467047F8B500BFF2
:083FE400F8BC08BC9E467047C2
:103FEC00000000000000000001020304060708099D
:083FFC00000610160006101665
:0840040000C2FF7F0100000073
:04400C00B9010008EE
:04401000950100080E
:0C4014000024F400100000000100000077
:0400000508000E5D84
:00000001FF
